{
  "contractName": "OpenHire",
  "abi": [
    {
      "constant": true,
      "inputs": [
        {
          "name": "",
          "type": "uint256"
        }
      ],
      "name": "allUserAddresses",
      "outputs": [
        {
          "name": "",
          "type": "address"
        }
      ],
      "payable": false,
      "stateMutability": "view",
      "type": "function"
    },
    {
      "constant": true,
      "inputs": [],
      "name": "owner",
      "outputs": [
        {
          "name": "",
          "type": "address"
        }
      ],
      "payable": false,
      "stateMutability": "view",
      "type": "function"
    },
    {
      "constant": false,
      "inputs": [
        {
          "name": "name",
          "type": "string"
        },
        {
          "name": "emailAddress",
          "type": "string"
        }
      ],
      "name": "createOrganization",
      "outputs": [],
      "payable": false,
      "stateMutability": "nonpayable",
      "type": "function"
    },
    {
      "constant": true,
      "inputs": [
        {
          "name": "searchAddress",
          "type": "address"
        }
      ],
      "name": "getOrganization",
      "outputs": [
        {
          "name": "",
          "type": "string"
        },
        {
          "name": "",
          "type": "string"
        }
      ],
      "payable": false,
      "stateMutability": "view",
      "type": "function"
    },
    {
      "constant": false,
      "inputs": [
        {
          "name": "organizationAddress",
          "type": "address"
        }
      ],
      "name": "verifyOrganization",
      "outputs": [],
      "payable": false,
      "stateMutability": "nonpayable",
      "type": "function"
    },
    {
      "constant": false,
      "inputs": [
        {
          "name": "name",
          "type": "string"
        },
        {
          "name": "emailAddress",
          "type": "string"
        }
      ],
      "name": "createUser",
      "outputs": [],
      "payable": false,
      "stateMutability": "nonpayable",
      "type": "function"
    },
    {
      "constant": false,
      "inputs": [
        {
          "name": "organizationAddress",
          "type": "address"
        },
        {
          "name": "organizationName",
          "type": "string"
        },
        {
          "name": "expertise",
          "type": "string"
        },
        {
          "name": "duration",
          "type": "uint256"
        }
      ],
      "name": "addExperience",
      "outputs": [],
      "payable": false,
      "stateMutability": "nonpayable",
      "type": "function"
    },
    {
      "constant": false,
      "inputs": [
        {
          "name": "userAddress",
          "type": "address"
        }
      ],
      "name": "verifyExperience",
      "outputs": [],
      "payable": false,
      "stateMutability": "nonpayable",
      "type": "function"
    },
    {
      "constant": false,
      "inputs": [
        {
          "name": "skillName",
          "type": "string"
        }
      ],
      "name": "addSkill",
      "outputs": [],
      "payable": false,
      "stateMutability": "nonpayable",
      "type": "function"
    },
    {
      "constant": false,
      "inputs": [
        {
          "name": "endorseeAddress",
          "type": "address"
        },
        {
          "name": "index",
          "type": "uint256"
        }
      ],
      "name": "endorseSkill",
      "outputs": [],
      "payable": false,
      "stateMutability": "nonpayable",
      "type": "function"
    },
    {
      "constant": true,
      "inputs": [
        {
          "name": "userAddress",
          "type": "address"
        }
      ],
      "name": "getUserData",
      "outputs": [
        {
          "name": "",
          "type": "string"
        },
        {
          "name": "",
          "type": "string"
        },
        {
          "name": "",
          "type": "address[]"
        },
        {
          "components": [
            {
              "name": "name",
              "type": "string"
            },
            {
              "name": "endorsers",
              "type": "address[]"
            }
          ],
          "name": "",
          "type": "tuple[]"
        }
      ],
      "payable": false,
      "stateMutability": "view",
      "type": "function"
    },
    {
      "constant": true,
      "inputs": [
        {
          "name": "userAddress",
          "type": "address"
        },
        {
          "name": "organizationAddress",
          "type": "address"
        }
      ],
      "name": "getExperience",
      "outputs": [
        {
          "name": "",
          "type": "string"
        },
        {
          "name": "",
          "type": "string"
        },
        {
          "name": "",
          "type": "uint256"
        },
        {
          "name": "",
          "type": "bool"
        }
      ],
      "payable": false,
      "stateMutability": "view",
      "type": "function"
    }
  ],
  "bytecode": "0x6080604052336000806101000a81548173ffffffffffffffffffffffffffffffffffffffff021916908373ffffffffffffffffffffffffffffffffffffffff160217905550611dab806100536000396000f3fe608060405234801561001057600080fd5b50600436106100b45760003560e01c806387b162b51161007157806387b162b5146101755780638da5cb5b14610191578063a411ef20146101af578063d2c30a6d146101cb578063e0023c5d146101fc578063ffc9896b1461022f576100b4565b806312f8a6ab146100b95780631ad3ef98146100e95780631e324990146101055780636b890bcc146101215780636d567acd1461013d5780636e30577814610159575b600080fd5b6100d360048036036100ce91908101906117f7565b610262565b6040516100e09190611a6f565b60405180910390f35b61010360048036036100fe919081019061170e565b61029e565b005b61011f600480360361011a919081019061174a565b610364565b005b61013b60048036036101369190810190611616565b610462565b005b61015760048036036101529190810190611616565b610560565b005b610173600480360361016e919081019061167b565b610616565b005b61018f600480360361018a919081019061178b565b6107d8565b005b6101996108b8565b6040516101a69190611a6f565b60405180910390f35b6101c960048036036101c4919081019061178b565b6108e1565b005b6101e560048036036101e09190810190611616565b6109ab565b6040516101f3929190611a8a565b60405180910390f35b6102166004803603610211919081019061163f565b610b73565b6040516102269493929190611b22565b60405180910390f35b61024960048036036102449190810190611616565b610ed9565b6040516102599493929190611ac1565b60405180910390f35b6003818154811061026f57fe5b906000526020600020016000915054906101000a900473ffffffffffffffffffffffffffffffffffffffff1681565b600260008373ffffffffffffffffffffffffffffffffffffffff1673ffffffffffffffffffffffffffffffffffffffff16815260200190815260200160002060040181815481106102eb57fe5b90600052602060002090600202016001013390806001815401808255809150509060018203906000526020600020016000909192909190916101000a81548173ffffffffffffffffffffffffffffffffffffffff021916908373ffffffffffffffffffffffffffffffffffffffff160217905550505050565b61036c61133f565b604051806040016040528083815260200160006040519080825280602002602001820160405280156103ad5781602001602082028038833980820191505090505b508152509050600260003373ffffffffffffffffffffffffffffffffffffffff1673ffffffffffffffffffffffffffffffffffffffff1681526020019081526020016000206004018190806001815401808255809150509060018203906000526020600020906002020160009091929091909150600082015181600001908051906020019061043d929190611359565b50602082015181600101908051906020019061045a9291906113d9565b505050505050565b60011515600160003373ffffffffffffffffffffffffffffffffffffffff1673ffffffffffffffffffffffffffffffffffffffff16815260200190815260200160002060020160009054906101000a900460ff161515146104c257600080fd5b6001600260008373ffffffffffffffffffffffffffffffffffffffff1673ffffffffffffffffffffffffffffffffffffffff16815260200190815260200160002060030160003373ffffffffffffffffffffffffffffffffffffffff1673ffffffffffffffffffffffffffffffffffffffff16815260200190815260200160002060030160006101000a81548160ff02191690831515021790555050565b6000809054906101000a900473ffffffffffffffffffffffffffffffffffffffff1673ffffffffffffffffffffffffffffffffffffffff163373ffffffffffffffffffffffffffffffffffffffff16146105b957600080fd5b60018060008373ffffffffffffffffffffffffffffffffffffffff1673ffffffffffffffffffffffffffffffffffffffff16815260200190815260200160002060020160006101000a81548160ff02191690831515021790555050565b61061e611463565b6040518060800160405280858152602001848152602001838152602001600015158152509050600260003373ffffffffffffffffffffffffffffffffffffffff1673ffffffffffffffffffffffffffffffffffffffff1681526020019081526020016000206002018590806001815401808255809150509060018203906000526020600020016000909192909190916101000a81548173ffffffffffffffffffffffffffffffffffffffff021916908373ffffffffffffffffffffffffffffffffffffffff1602179055505080600260003373ffffffffffffffffffffffffffffffffffffffff1673ffffffffffffffffffffffffffffffffffffffff16815260200190815260200160002060030160008773ffffffffffffffffffffffffffffffffffffffff1673ffffffffffffffffffffffffffffffffffffffff1681526020019081526020016000206000820151816000019080519060200190610786929190611359565b5060208201518160010190805190602001906107a3929190611359565b506040820151816002015560608201518160030160006101000a81548160ff0219169083151502179055509050505050505050565b6000600260003373ffffffffffffffffffffffffffffffffffffffff1673ffffffffffffffffffffffffffffffffffffffff16815260200190815260200160002090508281600001908051906020019061083392919061148d565b508181600101908051906020019061084c92919061148d565b5060033390806001815401808255809150509060018203906000526020600020016000909192909190916101000a81548173ffffffffffffffffffffffffffffffffffffffff021916908373ffffffffffffffffffffffffffffffffffffffff16021790555050505050565b60008060009054906101000a900473ffffffffffffffffffffffffffffffffffffffff16905090565b6108e961150d565b604051806060016040528084815260200183815260200160001515815250905080600160003373ffffffffffffffffffffffffffffffffffffffff1673ffffffffffffffffffffffffffffffffffffffff1681526020019081526020016000206000820151816000019080519060200190610965929190611359565b506020820151816001019080519060200190610982929190611359565b5060408201518160020160006101000a81548160ff021916908315150217905550905050505050565b606080600160008473ffffffffffffffffffffffffffffffffffffffff1673ffffffffffffffffffffffffffffffffffffffff168152602001908152602001600020600001600160008573ffffffffffffffffffffffffffffffffffffffff1673ffffffffffffffffffffffffffffffffffffffff168152602001908152602001600020600001818054600181600116156101000203166002900480601f016020809104026020016040519081016040528092919081815260200182805460018160011615610100020316600290048015610ac75780601f10610a9c57610100808354040283529160200191610ac7565b820191906000526020600020905b815481529060010190602001808311610aaa57829003601f168201915b50505050509150808054600181600116156101000203166002900480601f016020809104026020016040519081016040528092919081815260200182805460018160011615610100020316600290048015610b635780601f10610b3857610100808354040283529160200191610b63565b820191906000526020600020905b815481529060010190602001808311610b4657829003601f168201915b5050505050905091509150915091565b606080600080600260008773ffffffffffffffffffffffffffffffffffffffff1673ffffffffffffffffffffffffffffffffffffffff16815260200190815260200160002060030160008673ffffffffffffffffffffffffffffffffffffffff1673ffffffffffffffffffffffffffffffffffffffff168152602001908152602001600020600001600260008873ffffffffffffffffffffffffffffffffffffffff1673ffffffffffffffffffffffffffffffffffffffff16815260200190815260200160002060030160008773ffffffffffffffffffffffffffffffffffffffff1673ffffffffffffffffffffffffffffffffffffffff168152602001908152602001600020600101600260008973ffffffffffffffffffffffffffffffffffffffff1673ffffffffffffffffffffffffffffffffffffffff16815260200190815260200160002060030160008873ffffffffffffffffffffffffffffffffffffffff1673ffffffffffffffffffffffffffffffffffffffff16815260200190815260200160002060020154600260008a73ffffffffffffffffffffffffffffffffffffffff1673ffffffffffffffffffffffffffffffffffffffff16815260200190815260200160002060030160008973ffffffffffffffffffffffffffffffffffffffff1673ffffffffffffffffffffffffffffffffffffffff16815260200190815260200160002060030160009054906101000a900460ff16838054600181600116156101000203166002900480601f016020809104026020016040519081016040528092919081815260200182805460018160011615610100020316600290048015610e255780601f10610dfa57610100808354040283529160200191610e25565b820191906000526020600020905b815481529060010190602001808311610e0857829003601f168201915b50505050509350828054600181600116156101000203166002900480601f016020809104026020016040519081016040528092919081815260200182805460018160011615610100020316600290048015610ec15780601f10610e9657610100808354040283529160200191610ec1565b820191906000526020600020905b815481529060010190602001808311610ea457829003601f168201915b50505050509250935093509350935092959194509250565b606080606080600260008673ffffffffffffffffffffffffffffffffffffffff1673ffffffffffffffffffffffffffffffffffffffff168152602001908152602001600020600001600260008773ffffffffffffffffffffffffffffffffffffffff1673ffffffffffffffffffffffffffffffffffffffff168152602001908152602001600020600101600260008873ffffffffffffffffffffffffffffffffffffffff1673ffffffffffffffffffffffffffffffffffffffff168152602001908152602001600020600201600260008973ffffffffffffffffffffffffffffffffffffffff1673ffffffffffffffffffffffffffffffffffffffff168152602001908152602001600020600401838054600181600116156101000203166002900480601f01602080910402602001604051908101604052809291908181526020018280546001816001161561010002031660029004801561107c5780601f106110515761010080835404028352916020019161107c565b820191906000526020600020905b81548152906001019060200180831161105f57829003601f168201915b50505050509350828054600181600116156101000203166002900480601f0160208091040260200160405190810160405280929190818152602001828054600181600116156101000203166002900480156111185780601f106110ed57610100808354040283529160200191611118565b820191906000526020600020905b8154815290600101906020018083116110fb57829003601f168201915b50505050509250818054806020026020016040519081016040528092919081815260200182805480156111a057602002820191906000526020600020905b8160009054906101000a900473ffffffffffffffffffffffffffffffffffffffff1673ffffffffffffffffffffffffffffffffffffffff1681526020019060010190808311611156575b5050505050915080805480602002602001604051908101604052809291908181526020016000905b8282101561132a5783829060005260206000209060020201604051806040016040529081600082018054600181600116156101000203166002900480601f0160208091040260200160405190810160405280929190818152602001828054600181600116156101000203166002900480156112845780601f1061125957610100808354040283529160200191611284565b820191906000526020600020905b81548152906001019060200180831161126757829003601f168201915b505050505081526020016001820180548060200260200160405190810160405280929190818152602001828054801561131257602002820191906000526020600020905b8160009054906101000a900473ffffffffffffffffffffffffffffffffffffffff1673ffffffffffffffffffffffffffffffffffffffff16815260200190600101908083116112c8575b505050505081525050815260200190600101906111c8565b50505050905093509350935093509193509193565b604051806040016040528060608152602001606081525090565b828054600181600116156101000203166002900490600052602060002090601f016020900481019282601f1061139a57805160ff19168380011785556113c8565b828001600101855582156113c8579182015b828111156113c75782518255916020019190600101906113ac565b5b5090506113d59190611530565b5090565b828054828255906000526020600020908101928215611452579160200282015b828111156114515782518260006101000a81548173ffffffffffffffffffffffffffffffffffffffff021916908373ffffffffffffffffffffffffffffffffffffffff160217905550916020019190600101906113f9565b5b50905061145f9190611555565b5090565b60405180608001604052806060815260200160608152602001600081526020016000151581525090565b828054600181600116156101000203166002900490600052602060002090601f016020900481019282601f106114ce57805160ff19168380011785556114fc565b828001600101855582156114fc579182015b828111156114fb5782518255916020019190600101906114e0565b5b5090506115099190611530565b5090565b604051806060016040528060608152602001606081526020016000151581525090565b61155291905b8082111561154e576000816000905550600101611536565b5090565b90565b61159591905b8082111561159157600081816101000a81549073ffffffffffffffffffffffffffffffffffffffff02191690555060010161155b565b5090565b90565b6000813590506115a781611d43565b92915050565b600082601f8301126115be57600080fd5b81356115d16115cc82611ba2565b611b75565b915080825260208301602083018583830111156115ed57600080fd5b6115f8838284611cf0565b50505092915050565b60008135905061161081611d5a565b92915050565b60006020828403121561162857600080fd5b600061163684828501611598565b91505092915050565b6000806040838503121561165257600080fd5b600061166085828601611598565b925050602061167185828601611598565b9150509250929050565b6000806000806080858703121561169157600080fd5b600061169f87828801611598565b945050602085013567ffffffffffffffff8111156116bc57600080fd5b6116c8878288016115ad565b935050604085013567ffffffffffffffff8111156116e557600080fd5b6116f1878288016115ad565b925050606061170287828801611601565b91505092959194509250565b6000806040838503121561172157600080fd5b600061172f85828601611598565b925050602061174085828601611601565b9150509250929050565b60006020828403121561175c57600080fd5b600082013567ffffffffffffffff81111561177657600080fd5b611782848285016115ad565b91505092915050565b6000806040838503121561179e57600080fd5b600083013567ffffffffffffffff8111156117b857600080fd5b6117c4858286016115ad565b925050602083013567ffffffffffffffff8111156117e157600080fd5b6117ed858286016115ad565b9150509250929050565b60006020828403121561180957600080fd5b600061181784828501611601565b91505092915050565b600061182c838361184c565b60208301905092915050565b60006118448383611a1c565b905092915050565b61185581611ca8565b82525050565b61186481611ca8565b82525050565b600061187582611c00565b61187f8185611c64565b935061188a83611bdb565b8060005b838110156118bb5781516118a28882611820565b97506118ad83611c39565b92505060018101905061188e565b5085935050505092915050565b60006118d382611bf5565b6118dd8185611c53565b93506118e883611bce565b8060005b838110156119195781516119008882611820565b975061190b83611c2c565b9250506001810190506118ec565b5085935050505092915050565b600061193182611c0b565b61193b8185611c75565b93508360208202850161194d85611be8565b8060005b85811015611989578484038952815161196a8582611838565b945061197583611c46565b925060208a01995050600181019050611951565b50829750879550505050505092915050565b6119a481611cba565b82525050565b60006119b582611c21565b6119bf8185611c97565b93506119cf818560208601611cff565b6119d881611d32565b840191505092915050565b60006119ee82611c16565b6119f88185611c86565b9350611a08818560208601611cff565b611a1181611d32565b840191505092915050565b60006040830160008301518482036000860152611a3982826119e3565b91505060208301518482036020860152611a5382826118c8565b9150508091505092915050565b611a6981611ce6565b82525050565b6000602082019050611a84600083018461185b565b92915050565b60006040820190508181036000830152611aa481856119aa565b90508181036020830152611ab881846119aa565b90509392505050565b60006080820190508181036000830152611adb81876119aa565b90508181036020830152611aef81866119aa565b90508181036040830152611b03818561186a565b90508181036060830152611b178184611926565b905095945050505050565b60006080820190508181036000830152611b3c81876119aa565b90508181036020830152611b5081866119aa565b9050611b5f6040830185611a60565b611b6c606083018461199b565b95945050505050565b6000604051905081810181811067ffffffffffffffff82111715611b9857600080fd5b8060405250919050565b600067ffffffffffffffff821115611bb957600080fd5b601f19601f8301169050602081019050919050565b6000602082019050919050565b6000602082019050919050565b6000602082019050919050565b600081519050919050565b600081519050919050565b600081519050919050565b600081519050919050565b600081519050919050565b6000602082019050919050565b6000602082019050919050565b6000602082019050919050565b600082825260208201905092915050565b600082825260208201905092915050565b600082825260208201905092915050565b600082825260208201905092915050565b600082825260208201905092915050565b6000611cb382611cc6565b9050919050565b60008115159050919050565b600073ffffffffffffffffffffffffffffffffffffffff82169050919050565b6000819050919050565b82818337600083830152505050565b60005b83811015611d1d578082015181840152602081019050611d02565b83811115611d2c576000848401525b50505050565b6000601f19601f8301169050919050565b611d4c81611ca8565b8114611d5757600080fd5b50565b611d6381611ce6565b8114611d6e57600080fd5b5056fea265627a7a72305820a09ff149b4b9c906286a929df253fb0fb532696024c53e34a607ad9c6cf9af066c6578706572696d656e74616cf50037",
  "source": "pragma solidity ^0.5.8;\npragma experimental ABIEncoderV2;\n\ncontract Administrator {\n    address private adminAddress;\n\n    constructor() internal {\n        adminAddress = msg.sender;\n    }\n\n    function owner() public view returns (address) {\n        return adminAddress;\n    }\n\n    modifier onlyAdmin() {\n        require(msg.sender == adminAddress);\n        _;\n    }\n\n}\n\ncontract OpenHire is Administrator {\n    mapping(address => Organization) allOrganizations;\n    mapping(address => User) allUsers;\n    address[] public allUserAddresses;\n\n\n    struct Organization {\n        string name;\n        string emailAddress;\n        bool verified;\n    }\n\n    //Can not return structs with mappings\n    struct User {\n        string name;\n        string emailAddress;\n        address[] experienceKeys;\n        //mapping so that organizations can look themselves up and approve\n        mapping(address => Experience) experience;\n\n        //Can have either array of structs or mapping skill name to array + array with keys\n        Skill[] skillsList;\n\n    }\n\n    struct Experience {\n        string organization;\n        string expertise;\n        uint duration;\n        bool verified;\n    }\n\n    struct Skill {\n        string name;\n        address[] endorsers;\n    }\n\n    function createOrganization(string memory name, string memory emailAddress) public {\n        Organization memory newOrganization = Organization({\n           name: name,\n           emailAddress: emailAddress,\n           verified: false\n        });\n\n        allOrganizations[msg.sender] = newOrganization;\n    }\n\n    function getOrganization(address searchAddress) public view returns (string memory, string memory){\n        return (allOrganizations[searchAddress].name, allOrganizations[searchAddress].name);\n    }\n\n    function verifyOrganization(address organizationAddress) public onlyAdmin {\n        allOrganizations[organizationAddress].verified = true;\n    }\n\n    //Differentiate user from organization while creating on the front end\n    function createUser(string memory name, string memory emailAddress) public {\n        User storage newUser = allUsers[msg.sender];\n        newUser.name = name;\n        newUser.emailAddress = emailAddress;\n\n        allUserAddresses.push(msg.sender);\n    }\n\n    function addExperience(address organizationAddress, string memory organizationName, string memory expertise, uint duration) public {\n        Experience memory newExperience = Experience({\n            organization: organizationName,\n            expertise: expertise,\n            duration: duration,\n            verified: false\n        });\n\n        allUsers[msg.sender].experienceKeys.push(organizationAddress);\n        allUsers[msg.sender].experience[organizationAddress] = newExperience;\n    }\n\n    //Organizations verify User experience\n    function verifyExperience(address userAddress) public {\n        require(allOrganizations[msg.sender].verified == true);\n        allUsers[userAddress].experience[msg.sender].verified = true;\n    }\n\n    function addSkill(string memory skillName) public {\n        Skill memory newSkill = Skill({\n            name: skillName,\n            endorsers: new address[](0)\n        });\n        allUsers[msg.sender].skillsList.push(newSkill);\n    }\n\n    function endorseSkill(address endorseeAddress, uint index) public {\n        allUsers[endorseeAddress].skillsList[index].endorsers.push(msg.sender);\n    }\n\n    function getUserData(address userAddress) public view returns (string memory, string memory, address[] memory, Skill[] memory) {\n        return (allUsers[userAddress].name, allUsers[userAddress].emailAddress, allUsers[userAddress].experienceKeys, allUsers[userAddress].skillsList);\n    }\n\n    function getExperience(address userAddress, address organizationAddress) public view returns (string memory, string memory, uint, bool) {\n        return (allUsers[userAddress].experience[organizationAddress].organization,allUsers[userAddress].experience[organizationAddress].expertise,allUsers[userAddress].experience[organizationAddress].duration,allUsers[userAddress].experience[organizationAddress].verified);\n    }\n}\n",
  "sourcePath": "/Users/AlexMok/DappLinkedIn/contracts/OpenHire.sol",
  "compiler": {
    "name": "solc",
    "version": "0.5.8+commit.23d335f2.Emscripten.clang"
  },
  "schemaVersion": "3.0.11",
  "updatedAt": "2019-08-01T23:40:24.649Z",
  "devdoc": {
    "methods": {}
  },
  "userdoc": {
    "methods": {}
  }
}