{
  "contractName": "OpenHire",
  "abi": [
    {
      "constant": true,
      "inputs": [
        {
          "name": "",
          "type": "uint256"
        }
      ],
      "name": "allUserAddresses",
      "outputs": [
        {
          "name": "",
          "type": "address"
        }
      ],
      "payable": false,
      "stateMutability": "view",
      "type": "function"
    },
    {
      "constant": true,
      "inputs": [],
      "name": "owner",
      "outputs": [
        {
          "name": "",
          "type": "address"
        }
      ],
      "payable": false,
      "stateMutability": "view",
      "type": "function"
    },
    {
      "constant": false,
      "inputs": [
        {
          "name": "name",
          "type": "string"
        },
        {
          "name": "emailAddress",
          "type": "string"
        }
      ],
      "name": "createOrganization",
      "outputs": [],
      "payable": false,
      "stateMutability": "nonpayable",
      "type": "function"
    },
    {
      "constant": true,
      "inputs": [
        {
          "name": "searchAddress",
          "type": "address"
        }
      ],
      "name": "getOrganization",
      "outputs": [
        {
          "components": [
            {
              "name": "name",
              "type": "string"
            },
            {
              "name": "emailAddress",
              "type": "string"
            },
            {
              "name": "verified",
              "type": "bool"
            }
          ],
          "name": "",
          "type": "tuple"
        }
      ],
      "payable": false,
      "stateMutability": "view",
      "type": "function"
    },
    {
      "constant": false,
      "inputs": [
        {
          "name": "organizationAddress",
          "type": "address"
        }
      ],
      "name": "verifyOrganization",
      "outputs": [],
      "payable": false,
      "stateMutability": "nonpayable",
      "type": "function"
    },
    {
      "constant": false,
      "inputs": [
        {
          "name": "name",
          "type": "string"
        },
        {
          "name": "emailAddress",
          "type": "string"
        }
      ],
      "name": "createUser",
      "outputs": [],
      "payable": false,
      "stateMutability": "nonpayable",
      "type": "function"
    },
    {
      "constant": false,
      "inputs": [
        {
          "name": "organizationAddress",
          "type": "address"
        },
        {
          "name": "organizationName",
          "type": "string"
        },
        {
          "name": "expertise",
          "type": "string"
        },
        {
          "name": "duration",
          "type": "uint256"
        }
      ],
      "name": "addExperience",
      "outputs": [],
      "payable": false,
      "stateMutability": "nonpayable",
      "type": "function"
    },
    {
      "constant": false,
      "inputs": [
        {
          "name": "userAddress",
          "type": "address"
        }
      ],
      "name": "verifyExperience",
      "outputs": [],
      "payable": false,
      "stateMutability": "nonpayable",
      "type": "function"
    },
    {
      "constant": false,
      "inputs": [
        {
          "name": "skillName",
          "type": "string"
        }
      ],
      "name": "addSkill",
      "outputs": [],
      "payable": false,
      "stateMutability": "nonpayable",
      "type": "function"
    },
    {
      "constant": false,
      "inputs": [
        {
          "name": "endorseeAddress",
          "type": "address"
        },
        {
          "name": "index",
          "type": "uint256"
        }
      ],
      "name": "endorseSkill",
      "outputs": [],
      "payable": false,
      "stateMutability": "nonpayable",
      "type": "function"
    },
    {
      "constant": true,
      "inputs": [
        {
          "name": "userAddress",
          "type": "address"
        }
      ],
      "name": "getUserData",
      "outputs": [
        {
          "name": "",
          "type": "string"
        },
        {
          "name": "",
          "type": "string"
        },
        {
          "name": "",
          "type": "address[]"
        },
        {
          "components": [
            {
              "name": "name",
              "type": "string"
            },
            {
              "name": "endorsers",
              "type": "address[]"
            }
          ],
          "name": "",
          "type": "tuple[]"
        }
      ],
      "payable": false,
      "stateMutability": "view",
      "type": "function"
    },
    {
      "constant": true,
      "inputs": [
        {
          "name": "userAddress",
          "type": "address"
        },
        {
          "name": "organizationAddress",
          "type": "address"
        }
      ],
      "name": "getExperience",
      "outputs": [
        {
          "name": "",
          "type": "string"
        },
        {
          "name": "",
          "type": "string"
        },
        {
          "name": "",
          "type": "uint256"
        },
        {
          "name": "",
          "type": "bool"
        }
      ],
      "payable": false,
      "stateMutability": "view",
      "type": "function"
    }
  ],
  "bytecode": "0x6080604052336000806101000a81548173ffffffffffffffffffffffffffffffffffffffff021916908373ffffffffffffffffffffffffffffffffffffffff160217905550611deb806100536000396000f3fe608060405234801561001057600080fd5b50600436106100b45760003560e01c806387b162b51161007157806387b162b5146101755780638da5cb5b14610191578063a411ef20146101af578063d2c30a6d146101cb578063e0023c5d146101fb578063ffc9896b1461022e576100b4565b806312f8a6ab146100b95780631ad3ef98146100e95780631e324990146101055780636b890bcc146101215780636d567acd1461013d5780636e30577814610159575b600080fd5b6100d360048036036100ce91908101906117e6565b610261565b6040516100e09190611ac4565b60405180910390f35b61010360048036036100fe91908101906116fd565b61029d565b005b61011f600480360361011a9190810190611739565b610363565b005b61013b60048036036101369190810190611605565b610461565b005b61015760048036036101529190810190611605565b61055f565b005b610173600480360361016e919081019061166a565b610615565b005b61018f600480360361018a919081019061177a565b6107d7565b005b6101996108b7565b6040516101a69190611ac4565b60405180910390f35b6101c960048036036101c4919081019061177a565b6108e0565b005b6101e560048036036101e09190810190611605565b6109aa565b6040516101f29190611b93565b60405180910390f35b6102156004803603610210919081019061162e565b610b62565b6040516102259493929190611b40565b60405180910390f35b61024860048036036102439190810190611605565b610ec8565b6040516102589493929190611adf565b60405180910390f35b6003818154811061026e57fe5b906000526020600020016000915054906101000a900473ffffffffffffffffffffffffffffffffffffffff1681565b600260008373ffffffffffffffffffffffffffffffffffffffff1673ffffffffffffffffffffffffffffffffffffffff16815260200190815260200160002060040181815481106102ea57fe5b90600052602060002090600202016001013390806001815401808255809150509060018203906000526020600020016000909192909190916101000a81548173ffffffffffffffffffffffffffffffffffffffff021916908373ffffffffffffffffffffffffffffffffffffffff160217905550505050565b61036b61132e565b604051806040016040528083815260200160006040519080825280602002602001820160405280156103ac5781602001602082028038833980820191505090505b508152509050600260003373ffffffffffffffffffffffffffffffffffffffff1673ffffffffffffffffffffffffffffffffffffffff1681526020019081526020016000206004018190806001815401808255809150509060018203906000526020600020906002020160009091929091909150600082015181600001908051906020019061043c929190611348565b5060208201518160010190805190602001906104599291906113c8565b505050505050565b60011515600160003373ffffffffffffffffffffffffffffffffffffffff1673ffffffffffffffffffffffffffffffffffffffff16815260200190815260200160002060020160009054906101000a900460ff161515146104c157600080fd5b6001600260008373ffffffffffffffffffffffffffffffffffffffff1673ffffffffffffffffffffffffffffffffffffffff16815260200190815260200160002060030160003373ffffffffffffffffffffffffffffffffffffffff1673ffffffffffffffffffffffffffffffffffffffff16815260200190815260200160002060030160006101000a81548160ff02191690831515021790555050565b6000809054906101000a900473ffffffffffffffffffffffffffffffffffffffff1673ffffffffffffffffffffffffffffffffffffffff163373ffffffffffffffffffffffffffffffffffffffff16146105b857600080fd5b60018060008373ffffffffffffffffffffffffffffffffffffffff1673ffffffffffffffffffffffffffffffffffffffff16815260200190815260200160002060020160006101000a81548160ff02191690831515021790555050565b61061d611452565b6040518060800160405280858152602001848152602001838152602001600015158152509050600260003373ffffffffffffffffffffffffffffffffffffffff1673ffffffffffffffffffffffffffffffffffffffff1681526020019081526020016000206002018590806001815401808255809150509060018203906000526020600020016000909192909190916101000a81548173ffffffffffffffffffffffffffffffffffffffff021916908373ffffffffffffffffffffffffffffffffffffffff1602179055505080600260003373ffffffffffffffffffffffffffffffffffffffff1673ffffffffffffffffffffffffffffffffffffffff16815260200190815260200160002060030160008773ffffffffffffffffffffffffffffffffffffffff1673ffffffffffffffffffffffffffffffffffffffff1681526020019081526020016000206000820151816000019080519060200190610785929190611348565b5060208201518160010190805190602001906107a2929190611348565b506040820151816002015560608201518160030160006101000a81548160ff0219169083151502179055509050505050505050565b6000600260003373ffffffffffffffffffffffffffffffffffffffff1673ffffffffffffffffffffffffffffffffffffffff16815260200190815260200160002090508281600001908051906020019061083292919061147c565b508181600101908051906020019061084b92919061147c565b5060033390806001815401808255809150509060018203906000526020600020016000909192909190916101000a81548173ffffffffffffffffffffffffffffffffffffffff021916908373ffffffffffffffffffffffffffffffffffffffff16021790555050505050565b60008060009054906101000a900473ffffffffffffffffffffffffffffffffffffffff16905090565b6108e86114fc565b604051806060016040528084815260200183815260200160001515815250905080600160003373ffffffffffffffffffffffffffffffffffffffff1673ffffffffffffffffffffffffffffffffffffffff1681526020019081526020016000206000820151816000019080519060200190610964929190611348565b506020820151816001019080519060200190610981929190611348565b5060408201518160020160006101000a81548160ff021916908315150217905550905050505050565b6109b26114fc565b600160008373ffffffffffffffffffffffffffffffffffffffff1673ffffffffffffffffffffffffffffffffffffffff168152602001908152602001600020604051806060016040529081600082018054600181600116156101000203166002900480601f016020809104026020016040519081016040528092919081815260200182805460018160011615610100020316600290048015610a955780601f10610a6a57610100808354040283529160200191610a95565b820191906000526020600020905b815481529060010190602001808311610a7857829003601f168201915b50505050508152602001600182018054600181600116156101000203166002900480601f016020809104026020016040519081016040528092919081815260200182805460018160011615610100020316600290048015610b375780601f10610b0c57610100808354040283529160200191610b37565b820191906000526020600020905b815481529060010190602001808311610b1a57829003601f168201915b505050505081526020016002820160009054906101000a900460ff1615151515815250509050919050565b606080600080600260008773ffffffffffffffffffffffffffffffffffffffff1673ffffffffffffffffffffffffffffffffffffffff16815260200190815260200160002060030160008673ffffffffffffffffffffffffffffffffffffffff1673ffffffffffffffffffffffffffffffffffffffff168152602001908152602001600020600001600260008873ffffffffffffffffffffffffffffffffffffffff1673ffffffffffffffffffffffffffffffffffffffff16815260200190815260200160002060030160008773ffffffffffffffffffffffffffffffffffffffff1673ffffffffffffffffffffffffffffffffffffffff168152602001908152602001600020600101600260008973ffffffffffffffffffffffffffffffffffffffff1673ffffffffffffffffffffffffffffffffffffffff16815260200190815260200160002060030160008873ffffffffffffffffffffffffffffffffffffffff1673ffffffffffffffffffffffffffffffffffffffff16815260200190815260200160002060020154600260008a73ffffffffffffffffffffffffffffffffffffffff1673ffffffffffffffffffffffffffffffffffffffff16815260200190815260200160002060030160008973ffffffffffffffffffffffffffffffffffffffff1673ffffffffffffffffffffffffffffffffffffffff16815260200190815260200160002060030160009054906101000a900460ff16838054600181600116156101000203166002900480601f016020809104026020016040519081016040528092919081815260200182805460018160011615610100020316600290048015610e145780601f10610de957610100808354040283529160200191610e14565b820191906000526020600020905b815481529060010190602001808311610df757829003601f168201915b50505050509350828054600181600116156101000203166002900480601f016020809104026020016040519081016040528092919081815260200182805460018160011615610100020316600290048015610eb05780601f10610e8557610100808354040283529160200191610eb0565b820191906000526020600020905b815481529060010190602001808311610e9357829003601f168201915b50505050509250935093509350935092959194509250565b606080606080600260008673ffffffffffffffffffffffffffffffffffffffff1673ffffffffffffffffffffffffffffffffffffffff168152602001908152602001600020600001600260008773ffffffffffffffffffffffffffffffffffffffff1673ffffffffffffffffffffffffffffffffffffffff168152602001908152602001600020600101600260008873ffffffffffffffffffffffffffffffffffffffff1673ffffffffffffffffffffffffffffffffffffffff168152602001908152602001600020600201600260008973ffffffffffffffffffffffffffffffffffffffff1673ffffffffffffffffffffffffffffffffffffffff168152602001908152602001600020600401838054600181600116156101000203166002900480601f01602080910402602001604051908101604052809291908181526020018280546001816001161561010002031660029004801561106b5780601f106110405761010080835404028352916020019161106b565b820191906000526020600020905b81548152906001019060200180831161104e57829003601f168201915b50505050509350828054600181600116156101000203166002900480601f0160208091040260200160405190810160405280929190818152602001828054600181600116156101000203166002900480156111075780601f106110dc57610100808354040283529160200191611107565b820191906000526020600020905b8154815290600101906020018083116110ea57829003601f168201915b505050505092508180548060200260200160405190810160405280929190818152602001828054801561118f57602002820191906000526020600020905b8160009054906101000a900473ffffffffffffffffffffffffffffffffffffffff1673ffffffffffffffffffffffffffffffffffffffff1681526020019060010190808311611145575b5050505050915080805480602002602001604051908101604052809291908181526020016000905b828210156113195783829060005260206000209060020201604051806040016040529081600082018054600181600116156101000203166002900480601f0160208091040260200160405190810160405280929190818152602001828054600181600116156101000203166002900480156112735780601f1061124857610100808354040283529160200191611273565b820191906000526020600020905b81548152906001019060200180831161125657829003601f168201915b505050505081526020016001820180548060200260200160405190810160405280929190818152602001828054801561130157602002820191906000526020600020905b8160009054906101000a900473ffffffffffffffffffffffffffffffffffffffff1673ffffffffffffffffffffffffffffffffffffffff16815260200190600101908083116112b7575b505050505081525050815260200190600101906111b7565b50505050905093509350935093509193509193565b604051806040016040528060608152602001606081525090565b828054600181600116156101000203166002900490600052602060002090601f016020900481019282601f1061138957805160ff19168380011785556113b7565b828001600101855582156113b7579182015b828111156113b657825182559160200191906001019061139b565b5b5090506113c4919061151f565b5090565b828054828255906000526020600020908101928215611441579160200282015b828111156114405782518260006101000a81548173ffffffffffffffffffffffffffffffffffffffff021916908373ffffffffffffffffffffffffffffffffffffffff160217905550916020019190600101906113e8565b5b50905061144e9190611544565b5090565b60405180608001604052806060815260200160608152602001600081526020016000151581525090565b828054600181600116156101000203166002900490600052602060002090601f016020900481019282601f106114bd57805160ff19168380011785556114eb565b828001600101855582156114eb579182015b828111156114ea5782518255916020019190600101906114cf565b5b5090506114f8919061151f565b5090565b604051806060016040528060608152602001606081526020016000151581525090565b61154191905b8082111561153d576000816000905550600101611525565b5090565b90565b61158491905b8082111561158057600081816101000a81549073ffffffffffffffffffffffffffffffffffffffff02191690555060010161154a565b5090565b90565b60008135905061159681611d83565b92915050565b600082601f8301126115ad57600080fd5b81356115c06115bb82611be2565b611bb5565b915080825260208301602083018583830111156115dc57600080fd5b6115e7838284611d30565b50505092915050565b6000813590506115ff81611d9a565b92915050565b60006020828403121561161757600080fd5b600061162584828501611587565b91505092915050565b6000806040838503121561164157600080fd5b600061164f85828601611587565b925050602061166085828601611587565b9150509250929050565b6000806000806080858703121561168057600080fd5b600061168e87828801611587565b945050602085013567ffffffffffffffff8111156116ab57600080fd5b6116b78782880161159c565b935050604085013567ffffffffffffffff8111156116d457600080fd5b6116e08782880161159c565b92505060606116f1878288016115f0565b91505092959194509250565b6000806040838503121561171057600080fd5b600061171e85828601611587565b925050602061172f858286016115f0565b9150509250929050565b60006020828403121561174b57600080fd5b600082013567ffffffffffffffff81111561176557600080fd5b6117718482850161159c565b91505092915050565b6000806040838503121561178d57600080fd5b600083013567ffffffffffffffff8111156117a757600080fd5b6117b38582860161159c565b925050602083013567ffffffffffffffff8111156117d057600080fd5b6117dc8582860161159c565b9150509250929050565b6000602082840312156117f857600080fd5b6000611806848285016115f0565b91505092915050565b600061181b838361183b565b60208301905092915050565b60006118338383611a71565b905092915050565b61184481611ce8565b82525050565b61185381611ce8565b82525050565b600061186482611c40565b61186e8185611ca4565b935061187983611c1b565b8060005b838110156118aa578151611891888261180f565b975061189c83611c79565b92505060018101905061187d565b5085935050505092915050565b60006118c282611c35565b6118cc8185611c93565b93506118d783611c0e565b8060005b838110156119085781516118ef888261180f565b97506118fa83611c6c565b9250506001810190506118db565b5085935050505092915050565b600061192082611c4b565b61192a8185611cb5565b93508360208202850161193c85611c28565b8060005b8581101561197857848403895281516119598582611827565b945061196483611c86565b925060208a01995050600181019050611940565b50829750879550505050505092915050565b61199381611cfa565b82525050565b6119a281611cfa565b82525050565b60006119b382611c61565b6119bd8185611cd7565b93506119cd818560208601611d3f565b6119d681611d72565b840191505092915050565b60006119ec82611c56565b6119f68185611cc6565b9350611a06818560208601611d3f565b611a0f81611d72565b840191505092915050565b60006060830160008301518482036000860152611a3782826119e1565b91505060208301518482036020860152611a5182826119e1565b9150506040830151611a66604086018261198a565b508091505092915050565b60006040830160008301518482036000860152611a8e82826119e1565b91505060208301518482036020860152611aa882826118b7565b9150508091505092915050565b611abe81611d26565b82525050565b6000602082019050611ad9600083018461184a565b92915050565b60006080820190508181036000830152611af981876119a8565b90508181036020830152611b0d81866119a8565b90508181036040830152611b218185611859565b90508181036060830152611b358184611915565b905095945050505050565b60006080820190508181036000830152611b5a81876119a8565b90508181036020830152611b6e81866119a8565b9050611b7d6040830185611ab5565b611b8a6060830184611999565b95945050505050565b60006020820190508181036000830152611bad8184611a1a565b905092915050565b6000604051905081810181811067ffffffffffffffff82111715611bd857600080fd5b8060405250919050565b600067ffffffffffffffff821115611bf957600080fd5b601f19601f8301169050602081019050919050565b6000602082019050919050565b6000602082019050919050565b6000602082019050919050565b600081519050919050565b600081519050919050565b600081519050919050565b600081519050919050565b600081519050919050565b6000602082019050919050565b6000602082019050919050565b6000602082019050919050565b600082825260208201905092915050565b600082825260208201905092915050565b600082825260208201905092915050565b600082825260208201905092915050565b600082825260208201905092915050565b6000611cf382611d06565b9050919050565b60008115159050919050565b600073ffffffffffffffffffffffffffffffffffffffff82169050919050565b6000819050919050565b82818337600083830152505050565b60005b83811015611d5d578082015181840152602081019050611d42565b83811115611d6c576000848401525b50505050565b6000601f19601f8301169050919050565b611d8c81611ce8565b8114611d9757600080fd5b50565b611da381611d26565b8114611dae57600080fd5b5056fea265627a7a72305820ad8d218dff8c1b31fefce016cdde172da84b15ab844523d600868b160dfef6fd6c6578706572696d656e74616cf50037",
  "source": "pragma solidity ^0.5.8;\npragma experimental ABIEncoderV2;\n\ncontract Administrator {\n    address private adminAddress;\n\n    constructor() internal {\n        adminAddress = msg.sender;\n    }\n\n    function owner() public view returns (address) {\n        return adminAddress;\n    }\n\n    modifier onlyAdmin() {\n        require(msg.sender == adminAddress);\n        _;\n    }\n\n}\n\ncontract OpenHire is Administrator {\n    mapping(address => Organization) allOrganizations;\n    mapping(address => User) allUsers;\n    address[] public allUserAddresses;\n\n\n    struct Organization {\n        string name;\n        string emailAddress;\n        bool verified;\n    }\n\n    //Can not return structs with mappings\n    struct User {\n        string name;\n        string emailAddress;\n        address[] experienceKeys;\n        //mapping so that organizations can look themselves up and approve\n        mapping(address => Experience) experience;\n\n        //Can have either array of structs or mapping skill name to array + array with keys\n        Skill[] skillsList;\n\n    }\n\n    struct Experience {\n        string organization;\n        string expertise;\n        uint duration;\n        bool verified;\n    }\n\n    struct Skill {\n        string name;\n        address[] endorsers;\n    }\n\n    function createOrganization(string memory name, string memory emailAddress) public {\n        Organization memory newOrganization = Organization({\n           name: name,\n           emailAddress: emailAddress,\n           verified: false\n        });\n\n        allOrganizations[msg.sender] = newOrganization;\n    }\n\n    function getOrganization(address searchAddress) public view returns (Organization memory){\n        return allOrganizations[searchAddress];\n    }\n\n    function verifyOrganization(address organizationAddress) public onlyAdmin {\n        allOrganizations[organizationAddress].verified = true;\n    }\n\n    //Differentiate user from organization while creating on the front end\n    function createUser(string memory name, string memory emailAddress) public {\n        User storage newUser = allUsers[msg.sender];\n        newUser.name = name;\n        newUser.emailAddress = emailAddress;\n\n        allUserAddresses.push(msg.sender);\n    }\n\n    function addExperience(address organizationAddress, string memory organizationName, string memory expertise, uint duration) public {\n        Experience memory newExperience = Experience({\n            organization: organizationName,\n            expertise: expertise,\n            duration: duration,\n            verified: false\n        });\n\n        allUsers[msg.sender].experienceKeys.push(organizationAddress);\n        allUsers[msg.sender].experience[organizationAddress] = newExperience;\n    }\n\n    //Organizations verify User experience\n    function verifyExperience(address userAddress) public {\n        require(allOrganizations[msg.sender].verified == true);\n        allUsers[userAddress].experience[msg.sender].verified = true;\n    }\n\n    function addSkill(string memory skillName) public {\n        Skill memory newSkill = Skill({\n            name: skillName,\n            endorsers: new address[](0)\n        });\n        allUsers[msg.sender].skillsList.push(newSkill);\n    }\n\n    function endorseSkill(address endorseeAddress, uint index) public {\n        allUsers[endorseeAddress].skillsList[index].endorsers.push(msg.sender);\n    }\n\n    function getUserData(address userAddress) public view returns (string memory, string memory, address[] memory, Skill[] memory) {\n        return (allUsers[userAddress].name, allUsers[userAddress].emailAddress, allUsers[userAddress].experienceKeys, allUsers[userAddress].skillsList);\n    }\n\n    function getExperience(address userAddress, address organizationAddress) public view returns (string memory, string memory, uint, bool) {\n        return (allUsers[userAddress].experience[organizationAddress].organization,allUsers[userAddress].experience[organizationAddress].expertise,allUsers[userAddress].experience[organizationAddress].duration,allUsers[userAddress].experience[organizationAddress].verified);\n    }\n}\n",
  "sourcePath": "/Users/AlexMok/DappLinkedIn/contracts/OpenHire.sol",
  "compiler": {
    "name": "solc",
    "version": "0.5.8+commit.23d335f2.Emscripten.clang"
  },
  "schemaVersion": "3.0.11",
  "updatedAt": "2019-08-01T01:42:27.421Z",
  "devdoc": {
    "methods": {}
  },
  "userdoc": {
    "methods": {}
  }
}